{
  "contractName": "BitFish",
  "abi": [
    {
      "inputs": [],
      "stateMutability": "nonpayable",
      "type": "constructor"
    },
    {
      "anonymous": false,
      "inputs": [
        {
          "indexed": true,
          "internalType": "address",
          "name": "owner",
          "type": "address"
        },
        {
          "indexed": true,
          "internalType": "address",
          "name": "approved",
          "type": "address"
        },
        {
          "indexed": true,
          "internalType": "uint256",
          "name": "tokenId",
          "type": "uint256"
        }
      ],
      "name": "Approval",
      "type": "event"
    },
    {
      "anonymous": false,
      "inputs": [
        {
          "indexed": true,
          "internalType": "address",
          "name": "owner",
          "type": "address"
        },
        {
          "indexed": true,
          "internalType": "address",
          "name": "operator",
          "type": "address"
        },
        {
          "indexed": false,
          "internalType": "bool",
          "name": "approved",
          "type": "bool"
        }
      ],
      "name": "ApprovalForAll",
      "type": "event"
    },
    {
      "anonymous": false,
      "inputs": [
        {
          "indexed": true,
          "internalType": "address",
          "name": "previousOwner",
          "type": "address"
        },
        {
          "indexed": true,
          "internalType": "address",
          "name": "newOwner",
          "type": "address"
        }
      ],
      "name": "OwnershipTransferred",
      "type": "event"
    },
    {
      "anonymous": false,
      "inputs": [
        {
          "indexed": true,
          "internalType": "address",
          "name": "from",
          "type": "address"
        },
        {
          "indexed": true,
          "internalType": "address",
          "name": "to",
          "type": "address"
        },
        {
          "indexed": true,
          "internalType": "uint256",
          "name": "tokenId",
          "type": "uint256"
        }
      ],
      "name": "Transfer",
      "type": "event"
    },
    {
      "inputs": [
        {
          "internalType": "address",
          "name": "to",
          "type": "address"
        },
        {
          "internalType": "uint256",
          "name": "tokenId",
          "type": "uint256"
        }
      ],
      "name": "approve",
      "outputs": [],
      "stateMutability": "nonpayable",
      "type": "function"
    },
    {
      "inputs": [
        {
          "internalType": "address",
          "name": "owner",
          "type": "address"
        }
      ],
      "name": "balanceOf",
      "outputs": [
        {
          "internalType": "uint256",
          "name": "",
          "type": "uint256"
        }
      ],
      "stateMutability": "view",
      "type": "function",
      "constant": true
    },
    {
      "inputs": [],
      "name": "baseURI",
      "outputs": [
        {
          "internalType": "string",
          "name": "",
          "type": "string"
        }
      ],
      "stateMutability": "view",
      "type": "function",
      "constant": true
    },
    {
      "inputs": [
        {
          "internalType": "uint256",
          "name": "tokenId",
          "type": "uint256"
        }
      ],
      "name": "getApproved",
      "outputs": [
        {
          "internalType": "address",
          "name": "",
          "type": "address"
        }
      ],
      "stateMutability": "view",
      "type": "function",
      "constant": true
    },
    {
      "inputs": [
        {
          "internalType": "address",
          "name": "owner",
          "type": "address"
        },
        {
          "internalType": "address",
          "name": "operator",
          "type": "address"
        }
      ],
      "name": "isApprovedForAll",
      "outputs": [
        {
          "internalType": "bool",
          "name": "",
          "type": "bool"
        }
      ],
      "stateMutability": "view",
      "type": "function",
      "constant": true
    },
    {
      "inputs": [],
      "name": "name",
      "outputs": [
        {
          "internalType": "string",
          "name": "",
          "type": "string"
        }
      ],
      "stateMutability": "view",
      "type": "function",
      "constant": true
    },
    {
      "inputs": [],
      "name": "owner",
      "outputs": [
        {
          "internalType": "address",
          "name": "",
          "type": "address"
        }
      ],
      "stateMutability": "view",
      "type": "function",
      "constant": true
    },
    {
      "inputs": [
        {
          "internalType": "uint256",
          "name": "tokenId",
          "type": "uint256"
        }
      ],
      "name": "ownerOf",
      "outputs": [
        {
          "internalType": "address",
          "name": "",
          "type": "address"
        }
      ],
      "stateMutability": "view",
      "type": "function",
      "constant": true
    },
    {
      "inputs": [],
      "name": "renounceOwnership",
      "outputs": [],
      "stateMutability": "nonpayable",
      "type": "function"
    },
    {
      "inputs": [
        {
          "internalType": "address",
          "name": "from",
          "type": "address"
        },
        {
          "internalType": "address",
          "name": "to",
          "type": "address"
        },
        {
          "internalType": "uint256",
          "name": "tokenId",
          "type": "uint256"
        }
      ],
      "name": "safeTransferFrom",
      "outputs": [],
      "stateMutability": "nonpayable",
      "type": "function"
    },
    {
      "inputs": [
        {
          "internalType": "address",
          "name": "from",
          "type": "address"
        },
        {
          "internalType": "address",
          "name": "to",
          "type": "address"
        },
        {
          "internalType": "uint256",
          "name": "tokenId",
          "type": "uint256"
        },
        {
          "internalType": "bytes",
          "name": "_data",
          "type": "bytes"
        }
      ],
      "name": "safeTransferFrom",
      "outputs": [],
      "stateMutability": "nonpayable",
      "type": "function"
    },
    {
      "inputs": [
        {
          "internalType": "address",
          "name": "operator",
          "type": "address"
        },
        {
          "internalType": "bool",
          "name": "approved",
          "type": "bool"
        }
      ],
      "name": "setApprovalForAll",
      "outputs": [],
      "stateMutability": "nonpayable",
      "type": "function"
    },
    {
      "inputs": [
        {
          "internalType": "bytes4",
          "name": "interfaceId",
          "type": "bytes4"
        }
      ],
      "name": "supportsInterface",
      "outputs": [
        {
          "internalType": "bool",
          "name": "",
          "type": "bool"
        }
      ],
      "stateMutability": "view",
      "type": "function",
      "constant": true
    },
    {
      "inputs": [],
      "name": "symbol",
      "outputs": [
        {
          "internalType": "string",
          "name": "",
          "type": "string"
        }
      ],
      "stateMutability": "view",
      "type": "function",
      "constant": true
    },
    {
      "inputs": [
        {
          "internalType": "uint256",
          "name": "index",
          "type": "uint256"
        }
      ],
      "name": "tokenByIndex",
      "outputs": [
        {
          "internalType": "uint256",
          "name": "",
          "type": "uint256"
        }
      ],
      "stateMutability": "view",
      "type": "function",
      "constant": true
    },
    {
      "inputs": [
        {
          "internalType": "address",
          "name": "owner",
          "type": "address"
        },
        {
          "internalType": "uint256",
          "name": "index",
          "type": "uint256"
        }
      ],
      "name": "tokenOfOwnerByIndex",
      "outputs": [
        {
          "internalType": "uint256",
          "name": "",
          "type": "uint256"
        }
      ],
      "stateMutability": "view",
      "type": "function",
      "constant": true
    },
    {
      "inputs": [
        {
          "internalType": "uint256",
          "name": "tokenId",
          "type": "uint256"
        }
      ],
      "name": "tokenURI",
      "outputs": [
        {
          "internalType": "string",
          "name": "",
          "type": "string"
        }
      ],
      "stateMutability": "view",
      "type": "function",
      "constant": true
    },
    {
      "inputs": [
        {
          "internalType": "uint256",
          "name": "",
          "type": "uint256"
        }
      ],
      "name": "tokens",
      "outputs": [
        {
          "internalType": "uint256",
          "name": "",
          "type": "uint256"
        }
      ],
      "stateMutability": "view",
      "type": "function",
      "constant": true
    },
    {
      "inputs": [],
      "name": "totalSupply",
      "outputs": [
        {
          "internalType": "uint256",
          "name": "",
          "type": "uint256"
        }
      ],
      "stateMutability": "view",
      "type": "function",
      "constant": true
    },
    {
      "inputs": [
        {
          "internalType": "address",
          "name": "from",
          "type": "address"
        },
        {
          "internalType": "address",
          "name": "to",
          "type": "address"
        },
        {
          "internalType": "uint256",
          "name": "tokenId",
          "type": "uint256"
        }
      ],
      "name": "transferFrom",
      "outputs": [],
      "stateMutability": "nonpayable",
      "type": "function"
    },
    {
      "inputs": [
        {
          "internalType": "address",
          "name": "newOwner",
          "type": "address"
        }
      ],
      "name": "transferOwnership",
      "outputs": [],
      "stateMutability": "nonpayable",
      "type": "function"
    },
    {
      "inputs": [
        {
          "internalType": "string",
          "name": "hash",
          "type": "string"
        },
        {
          "internalType": "string",
          "name": "_tokenURI",
          "type": "string"
        }
      ],
      "name": "mint",
      "outputs": [
        {
          "internalType": "uint256",
          "name": "",
          "type": "uint256"
        }
      ],
      "stateMutability": "payable",
      "type": "function",
      "payable": true
    },
    {
      "inputs": [],
      "name": "withdrawFunds",
      "outputs": [],
      "stateMutability": "nonpayable",
      "type": "function"
    }
  ],
  "bytecode": "0x60806040523480156200001157600080fd5b50604080518082018252600881526707084d2e88cd2e6d60c31b602080830191909152825180840190935260038352621c212360e91b9083015290620000676301ffc9a760e01b6001600160e01b036200015016565b81516200007c906006906020850190620001da565b50805162000092906007906020840190620001da565b50620000ae6380ac58cd60e01b6001600160e01b036200015016565b620000c9635b5e139f60e01b6001600160e01b036200015016565b620000e463780e9d6360e01b6001600160e01b036200015016565b5060009050620000fc6001600160e01b03620001d516565b600a80546001600160a01b0319166001600160a01b038316908117909155604051919250906000907f8be0079c531659141344cd1fd0a4f28419497f9722a3daafe3b4186f6b6457e0908290a3506200027c565b6001600160e01b03198082161415620001b0576040805162461bcd60e51b815260206004820152601c60248201527f4552433136353a20696e76616c696420696e7465726661636520696400000000604482015290519081900360640190fd5b6001600160e01b0319166000908152602081905260409020805460ff19166001179055565b335b90565b828054600181600116156101000203166002900490600052602060002090601f016020900481019282601f106200021d57805160ff19168380011785556200024d565b828001600101855582156200024d579182015b828111156200024d57825182559160200191906001019062000230565b506200025b9291506200025f565b5090565b620001d791905b808211156200025b576000815560010162000266565b6124ca806200028c6000396000f3fe6080604052600436106101405760003560e01c80636352211e116100b657806395d89b411161006f57806395d89b41146105b0578063a22cb465146105c5578063b88d4fde14610600578063c87b56dd146106d3578063e985e9c5146106fd578063f2fde38b1461073857610140565b80636352211e146103e75780636c0360eb1461041157806370a0823114610426578063715018a6146104595780638aa0fdad1461046e5780638da5cb5b1461059b57610140565b806323b872dd1161010857806323b872dd146102bf57806324600fc3146103025780632f745c591461031757806342842e0e146103505780634f64b2be146103935780634f6ccce7146103bd57610140565b806301ffc9a71461014557806306fdde031461018d578063081812fc14610217578063095ea7b31461025d57806318160ddd14610298575b600080fd5b34801561015157600080fd5b506101796004803603602081101561016857600080fd5b50356001600160e01b03191661076b565b604080519115158252519081900360200190f35b34801561019957600080fd5b506101a261078e565b6040805160208082528351818301528351919283929083019185019080838360005b838110156101dc5781810151838201526020016101c4565b50505050905090810190601f1680156102095780820380516001836020036101000a031916815260200191505b509250505060405180910390f35b34801561022357600080fd5b506102416004803603602081101561023a57600080fd5b5035610825565b604080516001600160a01b039092168252519081900360200190f35b34801561026957600080fd5b506102966004803603604081101561028057600080fd5b506001600160a01b038135169060200135610887565b005b3480156102a457600080fd5b506102ad610962565b60408051918252519081900360200190f35b3480156102cb57600080fd5b50610296600480360360608110156102e257600080fd5b506001600160a01b03813581169160208101359091169060400135610973565b34801561030e57600080fd5b506102966109ca565b34801561032357600080fd5b506102ad6004803603604081101561033a57600080fd5b506001600160a01b038135169060200135610a6d565b34801561035c57600080fd5b506102966004803603606081101561037357600080fd5b506001600160a01b03813581169160208101359091169060400135610a9e565b34801561039f57600080fd5b506102ad600480360360208110156103b657600080fd5b5035610ab9565b3480156103c957600080fd5b506102ad600480360360208110156103e057600080fd5b5035610ad7565b3480156103f357600080fd5b506102416004803603602081101561040a57600080fd5b5035610af3565b34801561041d57600080fd5b506101a2610b21565b34801561043257600080fd5b506102ad6004803603602081101561044957600080fd5b50356001600160a01b0316610b82565b34801561046557600080fd5b50610296610bea565b6102ad6004803603604081101561048457600080fd5b81019060208101813564010000000081111561049f57600080fd5b8201836020820111156104b157600080fd5b803590602001918460018302840111640100000000831117156104d357600080fd5b91908080601f016020809104026020016040519081016040528093929190818152602001838380828437600092019190915250929594936020810193503591505064010000000081111561052657600080fd5b82018360208201111561053857600080fd5b8035906020019184600183028401116401000000008311171561055a57600080fd5b91908080601f016020809104026020016040519081016040528093929190818152602001838380828437600092019190915250929550610ca8945050505050565b3480156105a757600080fd5b50610241610efd565b3480156105bc57600080fd5b506101a2610f0c565b3480156105d157600080fd5b50610296600480360360408110156105e857600080fd5b506001600160a01b0381351690602001351515610f6d565b34801561060c57600080fd5b506102966004803603608081101561062357600080fd5b6001600160a01b0382358116926020810135909116916040820135919081019060808101606082013564010000000081111561065e57600080fd5b82018360208201111561067057600080fd5b8035906020019184600183028401116401000000008311171561069257600080fd5b91908080601f016020809104026020016040519081016040528093929190818152602001838380828437600092019190915250929550611072945050505050565b3480156106df57600080fd5b506101a2600480360360208110156106f657600080fd5b50356110d0565b34801561070957600080fd5b506101796004803603604081101561072057600080fd5b506001600160a01b0381358116916020013516611353565b34801561074457600080fd5b506102966004803603602081101561075b57600080fd5b50356001600160a01b0316611381565b6001600160e01b0319811660009081526020819052604090205460ff165b919050565b60068054604080516020601f600260001961010060018816150201909516949094049384018190048102820181019092528281526060939092909183018282801561081a5780601f106107ef5761010080835404028352916020019161081a565b820191906000526020600020905b8154815290600101906020018083116107fd57829003601f168201915b505050505090505b90565b600061083082611496565b61086b5760405162461bcd60e51b815260040180806020018281038252602c815260200180612372602c913960400191505060405180910390fd5b506000908152600460205260409020546001600160a01b031690565b600061089282610af3565b9050806001600160a01b0316836001600160a01b031614156108e55760405162461bcd60e51b81526004018080602001828103825260218152602001806124226021913960400191505060405180910390fd5b806001600160a01b03166108f76114a9565b6001600160a01b031614806109185750610918816109136114a9565b611353565b6109535760405162461bcd60e51b81526004018080602001828103825260388152602001806122c56038913960400191505060405180910390fd5b61095d83836114ad565b505050565b600061096e600261151b565b905090565b61098461097e6114a9565b82611526565b6109bf5760405162461bcd60e51b81526004018080602001828103825260318152602001806124436031913960400191505060405180910390fd5b61095d8383836115ca565b6109d26114a9565b6001600160a01b03166109e3610efd565b6001600160a01b031614610a3e576040805162461bcd60e51b815260206004820181905260248201527f4f776e61626c653a2063616c6c6572206973206e6f7420746865206f776e6572604482015290519081900360640190fd5b60405133904780156108fc02916000818181858888f19350505050158015610a6a573d6000803e3d6000fd5b50565b6001600160a01b0382166000908152600160205260408120610a95908363ffffffff61172816565b90505b92915050565b61095d83838360405180602001604052806000815250611072565b600e8181548110610ac657fe5b600091825260209091200154905081565b600080610aeb60028463ffffffff61173416565b509392505050565b6000610a9882604051806060016040528060298152602001612327602991396002919063ffffffff61175016565b60098054604080516020601f600260001961010060018816150201909516949094049384018190048102820181019092528281526060939092909183018282801561081a5780601f106107ef5761010080835404028352916020019161081a565b60006001600160a01b038216610bc95760405162461bcd60e51b815260040180806020018281038252602a8152602001806122fd602a913960400191505060405180910390fd5b6001600160a01b0382166000908152600160205260409020610a989061151b565b610bf26114a9565b6001600160a01b0316610c03610efd565b6001600160a01b031614610c5e576040805162461bcd60e51b815260206004820181905260248201527f4f776e61626c653a2063616c6c6572206973206e6f7420746865206f776e6572604482015290519081900360640190fd5b600a546040516000916001600160a01b0316907f8be0079c531659141344cd1fd0a4f28419497f9722a3daafe3b4186f6b6457e0908390a3600a80546001600160a01b0319169055565b600080610cb3610962565b905060648111610cc7576000600b55610d14565b6103e88111610ce257680171eb9938ba7366e0600b55610d14565b611b588111610cfd57680455c2cbaa2f5a3c70600b55610d14565b611f408111610d1457680b8f5cc9c5d39b3ed0600b555b600b54341015610d555760405162461bcd60e51b81526004018080602001828103825260218152602001806124746021913960400191505060405180910390fd5b611f408110610dab576040805162461bcd60e51b815260206004820152601f60248201527f45786365656473206d6178696d756d20384269744669736820737570706c7900604482015290519081900360640190fd5b600d846040518082805190602001908083835b60208310610ddd5780518252601f199092019160209182019101610dbe565b51815160001960209485036101000a0190811690199190911617905292019485525060405193849003019092205460ff16600114159150610e1f905057600080fd5b6001600d856040518082805190602001908083835b60208310610e535780518252601f199092019160209182019101610e34565b51815160209384036101000a60001901801990921691161790529201948552506040519384900301909220805460ff191660ff949094169390931790925550610e9e9050600c611767565b6000610eaa600c611770565b9050610eb63382611774565b610ec08185611792565b600e80546001810182556000919091527fbb7b4a454dc3493923482f07822329ed19e8244eff582cc204f8554c3620c3fd01819055949350505050565b600a546001600160a01b031690565b60078054604080516020601f600260001961010060018816150201909516949094049384018190048102820181019092528281526060939092909183018282801561081a5780601f106107ef5761010080835404028352916020019161081a565b610f756114a9565b6001600160a01b0316826001600160a01b03161415610fdb576040805162461bcd60e51b815260206004820152601960248201527f4552433732313a20617070726f766520746f2063616c6c657200000000000000604482015290519081900360640190fd5b8060056000610fe86114a9565b6001600160a01b03908116825260208083019390935260409182016000908120918716808252919093529120805460ff19169215159290921790915561102c6114a9565b60408051841515815290516001600160a01b0392909216917f17307eab39ab6107e8899845ad3d59bd9653f200f220920489ca2b5937696c319181900360200190a35050565b61108361107d6114a9565b83611526565b6110be5760405162461bcd60e51b81526004018080602001828103825260318152602001806124436031913960400191505060405180910390fd5b6110ca848484846117f5565b50505050565b60606110db82611496565b6111165760405162461bcd60e51b815260040180806020018281038252602f8152602001806123f3602f913960400191505060405180910390fd5b60008281526008602090815260409182902080548351601f60026000196101006001861615020190931692909204918201849004840281018401909452808452606093928301828280156111ab5780601f10611180576101008083540402835291602001916111ab565b820191906000526020600020905b81548152906001019060200180831161118e57829003601f168201915b5050505050905060606111bc610b21565b90508051600014156111d057509050610789565b8151156112915780826040516020018083805190602001908083835b6020831061120b5780518252601f1990920191602091820191016111ec565b51815160209384036101000a600019018019909216911617905285519190930192850191508083835b602083106112535780518252601f199092019160209182019101611234565b6001836020036101000a0380198251168184511680821785525050505050509050019250505060405160208183030381529060405292505050610789565b8061129b85611847565b6040516020018083805190602001908083835b602083106112cd5780518252601f1990920191602091820191016112ae565b51815160209384036101000a600019018019909216911617905285519190930192850191508083835b602083106113155780518252601f1990920191602091820191016112f6565b6001836020036101000a0380198251168184511680821785525050505050509050019250505060405160208183030381529060405292505050919050565b6001600160a01b03918216600090815260056020908152604080832093909416825291909152205460ff1690565b6113896114a9565b6001600160a01b031661139a610efd565b6001600160a01b0316146113f5576040805162461bcd60e51b815260206004820181905260248201527f4f776e61626c653a2063616c6c6572206973206e6f7420746865206f776e6572604482015290519081900360640190fd5b6001600160a01b03811661143a5760405162461bcd60e51b815260040180806020018281038252602681526020018061224f6026913960400191505060405180910390fd5b600a546040516001600160a01b038084169216907f8be0079c531659141344cd1fd0a4f28419497f9722a3daafe3b4186f6b6457e090600090a3600a80546001600160a01b0319166001600160a01b0392909216919091179055565b6000610a9860028363ffffffff61192216565b3390565b600081815260046020526040902080546001600160a01b0319166001600160a01b03841690811790915581906114e282610af3565b6001600160a01b03167f8c5be1e5ebec7d5bd14f71427d1e84f3dd0314c0f7b2291e5b200ac8c7c3b92560405160405180910390a45050565b6000610a9882611770565b600061153182611496565b61156c5760405162461bcd60e51b815260040180806020018281038252602c815260200180612299602c913960400191505060405180910390fd5b600061157783610af3565b9050806001600160a01b0316846001600160a01b031614806115b25750836001600160a01b03166115a784610825565b6001600160a01b0316145b806115c257506115c28185611353565b949350505050565b826001600160a01b03166115dd82610af3565b6001600160a01b0316146116225760405162461bcd60e51b81526004018080602001828103825260298152602001806123ca6029913960400191505060405180910390fd5b6001600160a01b0382166116675760405162461bcd60e51b81526004018080602001828103825260248152602001806122756024913960400191505060405180910390fd5b61167283838361095d565b61167d6000826114ad565b6001600160a01b03831660009081526001602052604090206116a5908263ffffffff61192e16565b506001600160a01b03821660009081526001602052604090206116ce908263ffffffff61193a16565b506116e16002828463ffffffff61194616565b5080826001600160a01b0316846001600160a01b03167fddf252ad1be2c89b69c2b068fc378daa952ba7f163c4a11628f55a4df523b3ef60405160405180910390a4505050565b6000610a95838361195c565b600080808061174386866119c0565b9097909650945050505050565b600061175d848484611a3b565b90505b9392505050565b80546001019055565b5490565b61178e828260405180602001604052806000815250611b05565b5050565b61179b82611496565b6117d65760405162461bcd60e51b815260040180806020018281038252602c81526020018061239e602c913960400191505060405180910390fd5b6000828152600860209081526040909120825161095d92840190612162565b6118008484846115ca565b61180c84848484611b57565b6110ca5760405162461bcd60e51b815260040180806020018281038252603281526020018061221d6032913960400191505060405180910390fd5b60608161186c57506040805180820190915260018152600360fc1b6020820152610789565b8160005b811561188457600101600a82049150611870565b60608167ffffffffffffffff8111801561189d57600080fd5b506040519080825280601f01601f1916602001820160405280156118c8576020820181803683370190505b50859350905060001982015b831561191957600a840660300160f81b828280600190039350815181106118f757fe5b60200101906001600160f81b031916908160001a905350600a840493506118d4565b50949350505050565b6000610a958383611cd7565b6000610a958383611cef565b6000610a958383611db5565b600061175d84846001600160a01b038516611dff565b8154600090821061199e5760405162461bcd60e51b81526004018080602001828103825260228152602001806121fb6022913960400191505060405180910390fd5b8260000182815481106119ad57fe5b9060005260206000200154905092915050565b815460009081908310611a045760405162461bcd60e51b81526004018080602001828103825260228152602001806123506022913960400191505060405180910390fd5b6000846000018481548110611a1557fe5b906000526020600020906002020190508060000154816001015492509250509250929050565b60008281526001840160205260408120548281611ad65760405162461bcd60e51b81526004018080602001828103825283818151815260200191508051906020019080838360005b83811015611a9b578181015183820152602001611a83565b50505050905090810190601f168015611ac85780820380516001836020036101000a031916815260200191505b509250505060405180910390fd5b50846000016001820381548110611ae957fe5b9060005260206000209060020201600101549150509392505050565b611b0f8383611e96565b611b1c6000848484611b57565b61095d5760405162461bcd60e51b815260040180806020018281038252603281526020018061221d6032913960400191505060405180910390fd5b6000611b6b846001600160a01b0316611fd0565b611b77575060016115c2565b6060611c9d630a85bd0160e11b611b8c6114a9565b88878760405160240180856001600160a01b03166001600160a01b03168152602001846001600160a01b03166001600160a01b0316815260200183815260200180602001828103825283818151815260200191508051906020019080838360005b83811015611c05578181015183820152602001611bed565b50505050905090810190601f168015611c325780820380516001836020036101000a031916815260200191505b5095505050505050604051602081830303815290604052906001600160e01b0319166020820180516001600160e01b03838183161783525050505060405180606001604052806032815260200161221d603291396001600160a01b038816919063ffffffff611fd616565b90506000818060200190516020811015611cb657600080fd5b50516001600160e01b031916630a85bd0160e11b1492505050949350505050565b60009081526001919091016020526040902054151590565b60008181526001830160205260408120548015611dab5783546000198083019190810190600090879083908110611d2257fe5b9060005260206000200154905080876000018481548110611d3f57fe5b600091825260208083209091019290925582815260018981019092526040902090840190558654879080611d6f57fe5b60019003818190600052602060002001600090559055866001016000878152602001908152602001600020600090556001945050505050610a98565b6000915050610a98565b6000611dc18383611cd7565b611df757508154600181810184556000848152602080822090930184905584548482528286019093526040902091909155610a98565b506000610a98565b600082815260018401602052604081205480611e64575050604080518082018252838152602080820184815286546001818101895560008981528481209551600290930290950191825591519082015586548684528188019092529290912055611760565b82856000016001830381548110611e7757fe5b9060005260206000209060020201600101819055506000915050611760565b6001600160a01b038216611ef1576040805162461bcd60e51b815260206004820181905260248201527f4552433732313a206d696e7420746f20746865207a65726f2061646472657373604482015290519081900360640190fd5b611efa81611496565b15611f4c576040805162461bcd60e51b815260206004820152601c60248201527f4552433732313a20746f6b656e20616c7265616479206d696e74656400000000604482015290519081900360640190fd5b611f586000838361095d565b6001600160a01b0382166000908152600160205260409020611f80908263ffffffff61193a16565b50611f936002828463ffffffff61194616565b5060405181906001600160a01b038416906000907fddf252ad1be2c89b69c2b068fc378daa952ba7f163c4a11628f55a4df523b3ef908290a45050565b3b151590565b606061175d848460008585611fea85611fd0565b61203b576040805162461bcd60e51b815260206004820152601d60248201527f416464726573733a2063616c6c20746f206e6f6e2d636f6e7472616374000000604482015290519081900360640190fd5b60006060866001600160a01b031685876040518082805190602001908083835b6020831061207a5780518252601f19909201916020918201910161205b565b6001836020036101000a03801982511681845116808217855250505050505090500191505060006040518083038185875af1925050503d80600081146120dc576040519150601f19603f3d011682016040523d82523d6000602084013e6120e1565b606091505b50915091506120f18282866120fc565b979650505050505050565b6060831561210b575081611760565b82511561211b5782518084602001fd5b60405162461bcd60e51b8152602060048201818152845160248401528451859391928392604401919085019080838360008315611a9b578181015183820152602001611a83565b828054600181600116156101000203166002900490600052602060002090601f016020900481019282601f106121a357805160ff19168380011785556121d0565b828001600101855582156121d0579182015b828111156121d05782518255916020019190600101906121b5565b506121dc9291506121e0565b5090565b61082291905b808211156121dc57600081556001016121e656fe456e756d657261626c655365743a20696e646578206f7574206f6620626f756e64734552433732313a207472616e7366657220746f206e6f6e20455243373231526563656976657220696d706c656d656e7465724f776e61626c653a206e6577206f776e657220697320746865207a65726f20616464726573734552433732313a207472616e7366657220746f20746865207a65726f20616464726573734552433732313a206f70657261746f7220717565727920666f72206e6f6e6578697374656e7420746f6b656e4552433732313a20617070726f76652063616c6c6572206973206e6f74206f776e6572206e6f7220617070726f76656420666f7220616c6c4552433732313a2062616c616e636520717565727920666f7220746865207a65726f20616464726573734552433732313a206f776e657220717565727920666f72206e6f6e6578697374656e7420746f6b656e456e756d657261626c654d61703a20696e646578206f7574206f6620626f756e64734552433732313a20617070726f76656420717565727920666f72206e6f6e6578697374656e7420746f6b656e4552433732314d657461646174613a2055524920736574206f66206e6f6e6578697374656e7420746f6b656e4552433732313a207472616e73666572206f6620746f6b656e2074686174206973206e6f74206f776e4552433732314d657461646174613a2055524920717565727920666f72206e6f6e6578697374656e7420746f6b656e4552433732313a20617070726f76616c20746f2063757272656e74206f776e65724552433732313a207472616e736665722063616c6c6572206973206e6f74206f776e6572206e6f7220617070726f7665644e6f7420656e6f756768204554482073656e743b20636865636b20707269636521a264697066735822122034f23ad1068fbbb1d90e556367e510124fa04865f80180b9648bb1fdcb94bc5f64736f6c63430006060033",
  "immutableReferences": {},
  "source": "// SPDX-License-Identifier: MIT\npragma solidity ^0.6.6;\n\nimport \"@openzeppelin/contracts/token/ERC721/ERC721.sol\";\nimport \"@openzeppelin/contracts/access/Ownable.sol\";\nimport \"@openzeppelin/contracts/utils/Counters.sol\";\n\ncontract BitFish is ERC721, Ownable {\n    using SafeMath for uint256;\n    using Strings for string;\n\n    uint256 price;\n\n    constructor() public ERC721(\"8BitFish\", \"8BF\") {}\n\n    using Counters for Counters.Counter;\n    Counters.Counter private _tokenIds;\n    mapping(string => uint8) hashes;\n\n    uint256[] public tokens;\n\n    function mint(string memory hash, string memory _tokenURI)\n        public\n        payable\n        returns (uint256)\n    {\n        uint256 supply = totalSupply();\n        if (supply <= 100) {\n            price = 0;\n        } else if (supply <= 1000) {\n            price = 26655567288447756000;\n        } else if (supply <= 7000) {\n            price = 79966701865343270000;\n        } else if (supply <= 8000) {\n            price = 213244538307582050000;\n        }\n        require(msg.value >= price, \"Not enough ETH sent; check price!\");\n        require(supply < 8000, \"Exceeds maximum 8BitFish supply\");\n        require(hashes[hash] != 1);\n        hashes[hash] = 1;\n        _tokenIds.increment();\n        uint256 tokenId = _tokenIds.current();\n        _safeMint(msg.sender, tokenId);\n        _setTokenURI(tokenId, _tokenURI);\n        tokens.push(tokenId);\n        return tokenId;\n    }\n\n    function withdrawFunds() public onlyOwner {\n        msg.sender.transfer(address(this).balance);\n    }\n}\n",
  "sourcePath": "/Users/paulb/Desktop/code/8bitfish/sc-dev/contracts/8BitFish.sol",
  "compiler": {
    "name": "solc",
    "version": "0.6.6+commit.6c089d02.Emscripten.clang"
  },
  "schemaVersion": "3.4.3",
  "updatedAt": "2021-11-22T02:52:56.507Z",
  "networkType": "ethereum",
  "devdoc": {
    "methods": {
      "approve(address,uint256)": {
        "details": "See {IERC721-approve}."
      },
      "balanceOf(address)": {
        "details": "See {IERC721-balanceOf}."
      },
      "baseURI()": {
        "details": "Returns the base URI set via {_setBaseURI}. This will be automatically added as a prefix in {tokenURI} to each token's URI, or to the token ID if no specific URI is set for that token ID."
      },
      "getApproved(uint256)": {
        "details": "See {IERC721-getApproved}."
      },
      "isApprovedForAll(address,address)": {
        "details": "See {IERC721-isApprovedForAll}."
      },
      "name()": {
        "details": "See {IERC721Metadata-name}."
      },
      "owner()": {
        "details": "Returns the address of the current owner."
      },
      "ownerOf(uint256)": {
        "details": "See {IERC721-ownerOf}."
      },
      "renounceOwnership()": {
        "details": "Leaves the contract without owner. It will not be possible to call `onlyOwner` functions anymore. Can only be called by the current owner.     * NOTE: Renouncing ownership will leave the contract without an owner, thereby removing any functionality that is only available to the owner."
      },
      "safeTransferFrom(address,address,uint256)": {
        "details": "See {IERC721-safeTransferFrom}."
      },
      "safeTransferFrom(address,address,uint256,bytes)": {
        "details": "See {IERC721-safeTransferFrom}."
      },
      "setApprovalForAll(address,bool)": {
        "details": "See {IERC721-setApprovalForAll}."
      },
      "supportsInterface(bytes4)": {
        "details": "See {IERC165-supportsInterface}.     * Time complexity O(1), guaranteed to always use less than 30 000 gas."
      },
      "symbol()": {
        "details": "See {IERC721Metadata-symbol}."
      },
      "tokenByIndex(uint256)": {
        "details": "See {IERC721Enumerable-tokenByIndex}."
      },
      "tokenOfOwnerByIndex(address,uint256)": {
        "details": "See {IERC721Enumerable-tokenOfOwnerByIndex}."
      },
      "tokenURI(uint256)": {
        "details": "See {IERC721Metadata-tokenURI}."
      },
      "totalSupply()": {
        "details": "See {IERC721Enumerable-totalSupply}."
      },
      "transferFrom(address,address,uint256)": {
        "details": "See {IERC721-transferFrom}."
      },
      "transferOwnership(address)": {
        "details": "Transfers ownership of the contract to a new account (`newOwner`). Can only be called by the current owner."
      }
    }
  },
  "userdoc": {
    "methods": {}
  }
}