{
  "contractName": "BitFish",
  "abi": [
    {
      "inputs": [],
      "stateMutability": "nonpayable",
      "type": "constructor"
    },
    {
      "anonymous": false,
      "inputs": [
        {
          "indexed": true,
          "internalType": "address",
          "name": "owner",
          "type": "address"
        },
        {
          "indexed": true,
          "internalType": "address",
          "name": "approved",
          "type": "address"
        },
        {
          "indexed": true,
          "internalType": "uint256",
          "name": "tokenId",
          "type": "uint256"
        }
      ],
      "name": "Approval",
      "type": "event"
    },
    {
      "anonymous": false,
      "inputs": [
        {
          "indexed": true,
          "internalType": "address",
          "name": "owner",
          "type": "address"
        },
        {
          "indexed": true,
          "internalType": "address",
          "name": "operator",
          "type": "address"
        },
        {
          "indexed": false,
          "internalType": "bool",
          "name": "approved",
          "type": "bool"
        }
      ],
      "name": "ApprovalForAll",
      "type": "event"
    },
    {
      "anonymous": false,
      "inputs": [
        {
          "indexed": true,
          "internalType": "address",
          "name": "previousOwner",
          "type": "address"
        },
        {
          "indexed": true,
          "internalType": "address",
          "name": "newOwner",
          "type": "address"
        }
      ],
      "name": "OwnershipTransferred",
      "type": "event"
    },
    {
      "anonymous": false,
      "inputs": [
        {
          "indexed": true,
          "internalType": "address",
          "name": "from",
          "type": "address"
        },
        {
          "indexed": true,
          "internalType": "address",
          "name": "to",
          "type": "address"
        },
        {
          "indexed": true,
          "internalType": "uint256",
          "name": "tokenId",
          "type": "uint256"
        }
      ],
      "name": "Transfer",
      "type": "event"
    },
    {
      "inputs": [
        {
          "internalType": "address",
          "name": "to",
          "type": "address"
        },
        {
          "internalType": "uint256",
          "name": "tokenId",
          "type": "uint256"
        }
      ],
      "name": "approve",
      "outputs": [],
      "stateMutability": "nonpayable",
      "type": "function"
    },
    {
      "inputs": [
        {
          "internalType": "address",
          "name": "owner",
          "type": "address"
        }
      ],
      "name": "balanceOf",
      "outputs": [
        {
          "internalType": "uint256",
          "name": "",
          "type": "uint256"
        }
      ],
      "stateMutability": "view",
      "type": "function",
      "constant": true
    },
    {
      "inputs": [],
      "name": "baseURI",
      "outputs": [
        {
          "internalType": "string",
          "name": "",
          "type": "string"
        }
      ],
      "stateMutability": "view",
      "type": "function",
      "constant": true
    },
    {
      "inputs": [
        {
          "internalType": "uint256",
          "name": "tokenId",
          "type": "uint256"
        }
      ],
      "name": "getApproved",
      "outputs": [
        {
          "internalType": "address",
          "name": "",
          "type": "address"
        }
      ],
      "stateMutability": "view",
      "type": "function",
      "constant": true
    },
    {
      "inputs": [
        {
          "internalType": "address",
          "name": "owner",
          "type": "address"
        },
        {
          "internalType": "address",
          "name": "operator",
          "type": "address"
        }
      ],
      "name": "isApprovedForAll",
      "outputs": [
        {
          "internalType": "bool",
          "name": "",
          "type": "bool"
        }
      ],
      "stateMutability": "view",
      "type": "function",
      "constant": true
    },
    {
      "inputs": [],
      "name": "name",
      "outputs": [
        {
          "internalType": "string",
          "name": "",
          "type": "string"
        }
      ],
      "stateMutability": "view",
      "type": "function",
      "constant": true
    },
    {
      "inputs": [],
      "name": "owner",
      "outputs": [
        {
          "internalType": "address",
          "name": "",
          "type": "address"
        }
      ],
      "stateMutability": "view",
      "type": "function",
      "constant": true
    },
    {
      "inputs": [
        {
          "internalType": "uint256",
          "name": "tokenId",
          "type": "uint256"
        }
      ],
      "name": "ownerOf",
      "outputs": [
        {
          "internalType": "address",
          "name": "",
          "type": "address"
        }
      ],
      "stateMutability": "view",
      "type": "function",
      "constant": true
    },
    {
      "inputs": [],
      "name": "renounceOwnership",
      "outputs": [],
      "stateMutability": "nonpayable",
      "type": "function"
    },
    {
      "inputs": [
        {
          "internalType": "address",
          "name": "from",
          "type": "address"
        },
        {
          "internalType": "address",
          "name": "to",
          "type": "address"
        },
        {
          "internalType": "uint256",
          "name": "tokenId",
          "type": "uint256"
        }
      ],
      "name": "safeTransferFrom",
      "outputs": [],
      "stateMutability": "nonpayable",
      "type": "function"
    },
    {
      "inputs": [
        {
          "internalType": "address",
          "name": "from",
          "type": "address"
        },
        {
          "internalType": "address",
          "name": "to",
          "type": "address"
        },
        {
          "internalType": "uint256",
          "name": "tokenId",
          "type": "uint256"
        },
        {
          "internalType": "bytes",
          "name": "_data",
          "type": "bytes"
        }
      ],
      "name": "safeTransferFrom",
      "outputs": [],
      "stateMutability": "nonpayable",
      "type": "function"
    },
    {
      "inputs": [
        {
          "internalType": "address",
          "name": "operator",
          "type": "address"
        },
        {
          "internalType": "bool",
          "name": "approved",
          "type": "bool"
        }
      ],
      "name": "setApprovalForAll",
      "outputs": [],
      "stateMutability": "nonpayable",
      "type": "function"
    },
    {
      "inputs": [
        {
          "internalType": "bytes4",
          "name": "interfaceId",
          "type": "bytes4"
        }
      ],
      "name": "supportsInterface",
      "outputs": [
        {
          "internalType": "bool",
          "name": "",
          "type": "bool"
        }
      ],
      "stateMutability": "view",
      "type": "function",
      "constant": true
    },
    {
      "inputs": [],
      "name": "symbol",
      "outputs": [
        {
          "internalType": "string",
          "name": "",
          "type": "string"
        }
      ],
      "stateMutability": "view",
      "type": "function",
      "constant": true
    },
    {
      "inputs": [
        {
          "internalType": "uint256",
          "name": "index",
          "type": "uint256"
        }
      ],
      "name": "tokenByIndex",
      "outputs": [
        {
          "internalType": "uint256",
          "name": "",
          "type": "uint256"
        }
      ],
      "stateMutability": "view",
      "type": "function",
      "constant": true
    },
    {
      "inputs": [
        {
          "internalType": "address",
          "name": "owner",
          "type": "address"
        },
        {
          "internalType": "uint256",
          "name": "index",
          "type": "uint256"
        }
      ],
      "name": "tokenOfOwnerByIndex",
      "outputs": [
        {
          "internalType": "uint256",
          "name": "",
          "type": "uint256"
        }
      ],
      "stateMutability": "view",
      "type": "function",
      "constant": true
    },
    {
      "inputs": [
        {
          "internalType": "uint256",
          "name": "tokenId",
          "type": "uint256"
        }
      ],
      "name": "tokenURI",
      "outputs": [
        {
          "internalType": "string",
          "name": "",
          "type": "string"
        }
      ],
      "stateMutability": "view",
      "type": "function",
      "constant": true
    },
    {
      "inputs": [
        {
          "internalType": "uint256",
          "name": "",
          "type": "uint256"
        }
      ],
      "name": "tokens",
      "outputs": [
        {
          "internalType": "uint256",
          "name": "",
          "type": "uint256"
        }
      ],
      "stateMutability": "view",
      "type": "function",
      "constant": true
    },
    {
      "inputs": [],
      "name": "totalSupply",
      "outputs": [
        {
          "internalType": "uint256",
          "name": "",
          "type": "uint256"
        }
      ],
      "stateMutability": "view",
      "type": "function",
      "constant": true
    },
    {
      "inputs": [
        {
          "internalType": "address",
          "name": "from",
          "type": "address"
        },
        {
          "internalType": "address",
          "name": "to",
          "type": "address"
        },
        {
          "internalType": "uint256",
          "name": "tokenId",
          "type": "uint256"
        }
      ],
      "name": "transferFrom",
      "outputs": [],
      "stateMutability": "nonpayable",
      "type": "function"
    },
    {
      "inputs": [
        {
          "internalType": "address",
          "name": "newOwner",
          "type": "address"
        }
      ],
      "name": "transferOwnership",
      "outputs": [],
      "stateMutability": "nonpayable",
      "type": "function"
    },
    {
      "inputs": [
        {
          "internalType": "string",
          "name": "hash",
          "type": "string"
        },
        {
          "internalType": "string",
          "name": "_tokenURI",
          "type": "string"
        }
      ],
      "name": "mint",
      "outputs": [
        {
          "internalType": "uint256",
          "name": "",
          "type": "uint256"
        }
      ],
      "stateMutability": "payable",
      "type": "function",
      "payable": true
    },
    {
      "inputs": [],
      "name": "withdrawFunds",
      "outputs": [],
      "stateMutability": "nonpayable",
      "type": "function"
    }
  ],
  "bytecode": "0x60806040523480156200001157600080fd5b50604080518082018252600881526707084d2e88cd2e6d60c31b602080830191909152825180840190935260038352621c212360e91b9083015290620000676301ffc9a760e01b6001600160e01b036200015016565b81516200007c906006906020850190620001da565b50805162000092906007906020840190620001da565b50620000ae6380ac58cd60e01b6001600160e01b036200015016565b620000c9635b5e139f60e01b6001600160e01b036200015016565b620000e463780e9d6360e01b6001600160e01b036200015016565b5060009050620000fc6001600160e01b03620001d516565b600a80546001600160a01b0319166001600160a01b038316908117909155604051919250906000907f8be0079c531659141344cd1fd0a4f28419497f9722a3daafe3b4186f6b6457e0908290a3506200027c565b6001600160e01b03198082161415620001b0576040805162461bcd60e51b815260206004820152601c60248201527f4552433136353a20696e76616c696420696e7465726661636520696400000000604482015290519081900360640190fd5b6001600160e01b0319166000908152602081905260409020805460ff19166001179055565b335b90565b828054600181600116156101000203166002900490600052602060002090601f016020900481019282601f106200021d57805160ff19168380011785556200024d565b828001600101855582156200024d579182015b828111156200024d57825182559160200191906001019062000230565b506200025b9291506200025f565b5090565b620001d791905b808211156200025b576000815560010162000266565b612456806200028c6000396000f3fe6080604052600436106101405760003560e01c80636352211e116100b657806395d89b411161006f57806395d89b41146105b0578063a22cb465146105c5578063b88d4fde14610600578063c87b56dd146106d3578063e985e9c5146106fd578063f2fde38b1461073857610140565b80636352211e146103e75780636c0360eb1461041157806370a0823114610426578063715018a6146104595780638aa0fdad1461046e5780638da5cb5b1461059b57610140565b806323b872dd1161010857806323b872dd146102bf57806324600fc3146103025780632f745c591461031757806342842e0e146103505780634f64b2be146103935780634f6ccce7146103bd57610140565b806301ffc9a71461014557806306fdde031461018d578063081812fc14610217578063095ea7b31461025d57806318160ddd14610298575b600080fd5b34801561015157600080fd5b506101796004803603602081101561016857600080fd5b50356001600160e01b03191661076b565b604080519115158252519081900360200190f35b34801561019957600080fd5b506101a261078e565b6040805160208082528351818301528351919283929083019185019080838360005b838110156101dc5781810151838201526020016101c4565b50505050905090810190601f1680156102095780820380516001836020036101000a031916815260200191505b509250505060405180910390f35b34801561022357600080fd5b506102416004803603602081101561023a57600080fd5b5035610825565b604080516001600160a01b039092168252519081900360200190f35b34801561026957600080fd5b506102966004803603604081101561028057600080fd5b506001600160a01b038135169060200135610887565b005b3480156102a457600080fd5b506102ad610962565b60408051918252519081900360200190f35b3480156102cb57600080fd5b50610296600480360360608110156102e257600080fd5b506001600160a01b03813581169160208101359091169060400135610973565b34801561030e57600080fd5b506102966109ca565b34801561032357600080fd5b506102ad6004803603604081101561033a57600080fd5b506001600160a01b038135169060200135610a5b565b34801561035c57600080fd5b506102966004803603606081101561037357600080fd5b506001600160a01b03813581169160208101359091169060400135610a8c565b34801561039f57600080fd5b506102ad600480360360208110156103b657600080fd5b5035610aa7565b3480156103c957600080fd5b506102ad600480360360208110156103e057600080fd5b5035610ac5565b3480156103f357600080fd5b506102416004803603602081101561040a57600080fd5b5035610ae1565b34801561041d57600080fd5b506101a2610b0f565b34801561043257600080fd5b506102ad6004803603602081101561044957600080fd5b50356001600160a01b0316610b70565b34801561046557600080fd5b50610296610bd8565b6102ad6004803603604081101561048457600080fd5b81019060208101813564010000000081111561049f57600080fd5b8201836020820111156104b157600080fd5b803590602001918460018302840111640100000000831117156104d357600080fd5b91908080601f016020809104026020016040519081016040528093929190818152602001838380828437600092019190915250929594936020810193503591505064010000000081111561052657600080fd5b82018360208201111561053857600080fd5b8035906020019184600183028401116401000000008311171561055a57600080fd5b91908080601f016020809104026020016040519081016040528093929190818152602001838380828437600092019190915250929550610c84945050505050565b3480156105a757600080fd5b50610241610e9c565b3480156105bc57600080fd5b506101a2610eab565b3480156105d157600080fd5b50610296600480360360408110156105e857600080fd5b506001600160a01b0381351690602001351515610f0c565b34801561060c57600080fd5b506102966004803603608081101561062357600080fd5b6001600160a01b0382358116926020810135909116916040820135919081019060808101606082013564010000000081111561065e57600080fd5b82018360208201111561067057600080fd5b8035906020019184600183028401116401000000008311171561069257600080fd5b91908080601f016020809104026020016040519081016040528093929190818152602001838380828437600092019190915250929550611011945050505050565b3480156106df57600080fd5b506101a2600480360360208110156106f657600080fd5b503561106f565b34801561070957600080fd5b506101796004803603604081101561072057600080fd5b506001600160a01b03813581169160200135166112f2565b34801561074457600080fd5b506102966004803603602081101561075b57600080fd5b50356001600160a01b0316611320565b6001600160e01b0319811660009081526020819052604090205460ff165b919050565b60068054604080516020601f600260001961010060018816150201909516949094049384018190048102820181019092528281526060939092909183018282801561081a5780601f106107ef5761010080835404028352916020019161081a565b820191906000526020600020905b8154815290600101906020018083116107fd57829003601f168201915b505050505090505b90565b600061083082611423565b61086b5760405162461bcd60e51b815260040180806020018281038252602c8152602001806122ff602c913960400191505060405180910390fd5b506000908152600460205260409020546001600160a01b031690565b600061089282610ae1565b9050806001600160a01b0316836001600160a01b031614156108e55760405162461bcd60e51b81526004018080602001828103825260218152602001806123cf6021913960400191505060405180910390fd5b806001600160a01b03166108f7611436565b6001600160a01b03161480610918575061091881610913611436565b6112f2565b6109535760405162461bcd60e51b81526004018080602001828103825260388152602001806122526038913960400191505060405180910390fd5b61095d838361143a565b505050565b600061096e60026114a8565b905090565b61098461097e611436565b826114b3565b6109bf5760405162461bcd60e51b81526004018080602001828103825260318152602001806123f06031913960400191505060405180910390fd5b61095d838383611557565b6109d2611436565b6001600160a01b03166109e3610e9c565b6001600160a01b031614610a2c576040805162461bcd60e51b81526020600482018190526024820152600080516020612357833981519152604482015290519081900360640190fd5b60405133904780156108fc02916000818181858888f19350505050158015610a58573d6000803e3d6000fd5b50565b6001600160a01b0382166000908152600160205260408120610a83908363ffffffff6116b516565b90505b92915050565b61095d83838360405180602001604052806000815250611011565b600e8181548110610ab457fe5b600091825260209091200154905081565b600080610ad960028463ffffffff6116c116565b509392505050565b6000610a86826040518060600160405280602981526020016122b4602991396002919063ffffffff6116dd16565b60098054604080516020601f600260001961010060018816150201909516949094049384018190048102820181019092528281526060939092909183018282801561081a5780601f106107ef5761010080835404028352916020019161081a565b60006001600160a01b038216610bb75760405162461bcd60e51b815260040180806020018281038252602a81526020018061228a602a913960400191505060405180910390fd5b6001600160a01b0382166000908152600160205260409020610a86906114a8565b610be0611436565b6001600160a01b0316610bf1610e9c565b6001600160a01b031614610c3a576040805162461bcd60e51b81526020600482018190526024820152600080516020612357833981519152604482015290519081900360640190fd5b600a546040516000916001600160a01b0316907f8be0079c531659141344cd1fd0a4f28419497f9722a3daafe3b4186f6b6457e0908390a3600a80546001600160a01b0319169055565b6000610c8e611436565b6001600160a01b0316610c9f610e9c565b6001600160a01b031614610ce8576040805162461bcd60e51b81526020600482018190526024820152600080516020612357833981519152604482015290519081900360640190fd5b6000610cf2610962565b9050611f408110610d4a576040805162461bcd60e51b815260206004820152601f60248201527f45786365656473206d6178696d756d20384269744669736820737570706c7900604482015290519081900360640190fd5b600d846040518082805190602001908083835b60208310610d7c5780518252601f199092019160209182019101610d5d565b51815160001960209485036101000a0190811690199190911617905292019485525060405193849003019092205460ff16600114159150610dbe905057600080fd5b6001600d856040518082805190602001908083835b60208310610df25780518252601f199092019160209182019101610dd3565b51815160209384036101000a60001901801990921691161790529201948552506040519384900301909220805460ff191660ff949094169390931790925550610e3d9050600c6116f4565b6000610e49600c6116fd565b9050610e553382611701565b610e5f818561171f565b600e80546001810182556000919091527fbb7b4a454dc3493923482f07822329ed19e8244eff582cc204f8554c3620c3fd01819055949350505050565b600a546001600160a01b031690565b60078054604080516020601f600260001961010060018816150201909516949094049384018190048102820181019092528281526060939092909183018282801561081a5780601f106107ef5761010080835404028352916020019161081a565b610f14611436565b6001600160a01b0316826001600160a01b03161415610f7a576040805162461bcd60e51b815260206004820152601960248201527f4552433732313a20617070726f766520746f2063616c6c657200000000000000604482015290519081900360640190fd5b8060056000610f87611436565b6001600160a01b03908116825260208083019390935260409182016000908120918716808252919093529120805460ff191692151592909217909155610fcb611436565b60408051841515815290516001600160a01b0392909216917f17307eab39ab6107e8899845ad3d59bd9653f200f220920489ca2b5937696c319181900360200190a35050565b61102261101c611436565b836114b3565b61105d5760405162461bcd60e51b81526004018080602001828103825260318152602001806123f06031913960400191505060405180910390fd5b61106984848484611782565b50505050565b606061107a82611423565b6110b55760405162461bcd60e51b815260040180806020018281038252602f8152602001806123a0602f913960400191505060405180910390fd5b60008281526008602090815260409182902080548351601f600260001961010060018616150201909316929092049182018490048402810184019094528084526060939283018282801561114a5780601f1061111f5761010080835404028352916020019161114a565b820191906000526020600020905b81548152906001019060200180831161112d57829003601f168201915b50505050509050606061115b610b0f565b905080516000141561116f57509050610789565b8151156112305780826040516020018083805190602001908083835b602083106111aa5780518252601f19909201916020918201910161118b565b51815160209384036101000a600019018019909216911617905285519190930192850191508083835b602083106111f25780518252601f1990920191602091820191016111d3565b6001836020036101000a0380198251168184511680821785525050505050509050019250505060405160208183030381529060405292505050610789565b8061123a856117d4565b6040516020018083805190602001908083835b6020831061126c5780518252601f19909201916020918201910161124d565b51815160209384036101000a600019018019909216911617905285519190930192850191508083835b602083106112b45780518252601f199092019160209182019101611295565b6001836020036101000a0380198251168184511680821785525050505050509050019250505060405160208183030381529060405292505050919050565b6001600160a01b03918216600090815260056020908152604080832093909416825291909152205460ff1690565b611328611436565b6001600160a01b0316611339610e9c565b6001600160a01b031614611382576040805162461bcd60e51b81526020600482018190526024820152600080516020612357833981519152604482015290519081900360640190fd5b6001600160a01b0381166113c75760405162461bcd60e51b81526004018080602001828103825260268152602001806121dc6026913960400191505060405180910390fd5b600a546040516001600160a01b038084169216907f8be0079c531659141344cd1fd0a4f28419497f9722a3daafe3b4186f6b6457e090600090a3600a80546001600160a01b0319166001600160a01b0392909216919091179055565b6000610a8660028363ffffffff6118af16565b3390565b600081815260046020526040902080546001600160a01b0319166001600160a01b038416908117909155819061146f82610ae1565b6001600160a01b03167f8c5be1e5ebec7d5bd14f71427d1e84f3dd0314c0f7b2291e5b200ac8c7c3b92560405160405180910390a45050565b6000610a86826116fd565b60006114be82611423565b6114f95760405162461bcd60e51b815260040180806020018281038252602c815260200180612226602c913960400191505060405180910390fd5b600061150483610ae1565b9050806001600160a01b0316846001600160a01b0316148061153f5750836001600160a01b031661153484610825565b6001600160a01b0316145b8061154f575061154f81856112f2565b949350505050565b826001600160a01b031661156a82610ae1565b6001600160a01b0316146115af5760405162461bcd60e51b81526004018080602001828103825260298152602001806123776029913960400191505060405180910390fd5b6001600160a01b0382166115f45760405162461bcd60e51b81526004018080602001828103825260248152602001806122026024913960400191505060405180910390fd5b6115ff83838361095d565b61160a60008261143a565b6001600160a01b0383166000908152600160205260409020611632908263ffffffff6118bb16565b506001600160a01b038216600090815260016020526040902061165b908263ffffffff6118c716565b5061166e6002828463ffffffff6118d316565b5080826001600160a01b0316846001600160a01b03167fddf252ad1be2c89b69c2b068fc378daa952ba7f163c4a11628f55a4df523b3ef60405160405180910390a4505050565b6000610a8383836118e9565b60008080806116d0868661194d565b9097909650945050505050565b60006116ea8484846119c8565b90505b9392505050565b80546001019055565b5490565b61171b828260405180602001604052806000815250611a92565b5050565b61172882611423565b6117635760405162461bcd60e51b815260040180806020018281038252602c81526020018061232b602c913960400191505060405180910390fd5b6000828152600860209081526040909120825161095d928401906120ef565b61178d848484611557565b61179984848484611ae4565b6110695760405162461bcd60e51b81526004018080602001828103825260328152602001806121aa6032913960400191505060405180910390fd5b6060816117f957506040805180820190915260018152600360fc1b6020820152610789565b8160005b811561181157600101600a820491506117fd565b60608167ffffffffffffffff8111801561182a57600080fd5b506040519080825280601f01601f191660200182016040528015611855576020820181803683370190505b50859350905060001982015b83156118a657600a840660300160f81b8282806001900393508151811061188457fe5b60200101906001600160f81b031916908160001a905350600a84049350611861565b50949350505050565b6000610a838383611c64565b6000610a838383611c7c565b6000610a838383611d42565b60006116ea84846001600160a01b038516611d8c565b8154600090821061192b5760405162461bcd60e51b81526004018080602001828103825260228152602001806121886022913960400191505060405180910390fd5b82600001828154811061193a57fe5b9060005260206000200154905092915050565b8154600090819083106119915760405162461bcd60e51b81526004018080602001828103825260228152602001806122dd6022913960400191505060405180910390fd5b60008460000184815481106119a257fe5b906000526020600020906002020190508060000154816001015492509250509250929050565b60008281526001840160205260408120548281611a635760405162461bcd60e51b81526004018080602001828103825283818151815260200191508051906020019080838360005b83811015611a28578181015183820152602001611a10565b50505050905090810190601f168015611a555780820380516001836020036101000a031916815260200191505b509250505060405180910390fd5b50846000016001820381548110611a7657fe5b9060005260206000209060020201600101549150509392505050565b611a9c8383611e23565b611aa96000848484611ae4565b61095d5760405162461bcd60e51b81526004018080602001828103825260328152602001806121aa6032913960400191505060405180910390fd5b6000611af8846001600160a01b0316611f5d565b611b045750600161154f565b6060611c2a630a85bd0160e11b611b19611436565b88878760405160240180856001600160a01b03166001600160a01b03168152602001846001600160a01b03166001600160a01b0316815260200183815260200180602001828103825283818151815260200191508051906020019080838360005b83811015611b92578181015183820152602001611b7a565b50505050905090810190601f168015611bbf5780820380516001836020036101000a031916815260200191505b5095505050505050604051602081830303815290604052906001600160e01b0319166020820180516001600160e01b0383818316178352505050506040518060600160405280603281526020016121aa603291396001600160a01b038816919063ffffffff611f6316565b90506000818060200190516020811015611c4357600080fd5b50516001600160e01b031916630a85bd0160e11b1492505050949350505050565b60009081526001919091016020526040902054151590565b60008181526001830160205260408120548015611d385783546000198083019190810190600090879083908110611caf57fe5b9060005260206000200154905080876000018481548110611ccc57fe5b600091825260208083209091019290925582815260018981019092526040902090840190558654879080611cfc57fe5b60019003818190600052602060002001600090559055866001016000878152602001908152602001600020600090556001945050505050610a86565b6000915050610a86565b6000611d4e8383611c64565b611d8457508154600181810184556000848152602080822090930184905584548482528286019093526040902091909155610a86565b506000610a86565b600082815260018401602052604081205480611df15750506040805180820182528381526020808201848152865460018181018955600089815284812095516002909302909501918255915190820155865486845281880190925292909120556116ed565b82856000016001830381548110611e0457fe5b90600052602060002090600202016001018190555060009150506116ed565b6001600160a01b038216611e7e576040805162461bcd60e51b815260206004820181905260248201527f4552433732313a206d696e7420746f20746865207a65726f2061646472657373604482015290519081900360640190fd5b611e8781611423565b15611ed9576040805162461bcd60e51b815260206004820152601c60248201527f4552433732313a20746f6b656e20616c7265616479206d696e74656400000000604482015290519081900360640190fd5b611ee56000838361095d565b6001600160a01b0382166000908152600160205260409020611f0d908263ffffffff6118c716565b50611f206002828463ffffffff6118d316565b5060405181906001600160a01b038416906000907fddf252ad1be2c89b69c2b068fc378daa952ba7f163c4a11628f55a4df523b3ef908290a45050565b3b151590565b60606116ea848460008585611f7785611f5d565b611fc8576040805162461bcd60e51b815260206004820152601d60248201527f416464726573733a2063616c6c20746f206e6f6e2d636f6e7472616374000000604482015290519081900360640190fd5b60006060866001600160a01b031685876040518082805190602001908083835b602083106120075780518252601f199092019160209182019101611fe8565b6001836020036101000a03801982511681845116808217855250505050505090500191505060006040518083038185875af1925050503d8060008114612069576040519150601f19603f3d011682016040523d82523d6000602084013e61206e565b606091505b509150915061207e828286612089565b979650505050505050565b606083156120985750816116ed565b8251156120a85782518084602001fd5b60405162461bcd60e51b8152602060048201818152845160248401528451859391928392604401919085019080838360008315611a28578181015183820152602001611a10565b828054600181600116156101000203166002900490600052602060002090601f016020900481019282601f1061213057805160ff191683800117855561215d565b8280016001018555821561215d579182015b8281111561215d578251825591602001919060010190612142565b5061216992915061216d565b5090565b61082291905b80821115612169576000815560010161217356fe456e756d657261626c655365743a20696e646578206f7574206f6620626f756e64734552433732313a207472616e7366657220746f206e6f6e20455243373231526563656976657220696d706c656d656e7465724f776e61626c653a206e6577206f776e657220697320746865207a65726f20616464726573734552433732313a207472616e7366657220746f20746865207a65726f20616464726573734552433732313a206f70657261746f7220717565727920666f72206e6f6e6578697374656e7420746f6b656e4552433732313a20617070726f76652063616c6c6572206973206e6f74206f776e6572206e6f7220617070726f76656420666f7220616c6c4552433732313a2062616c616e636520717565727920666f7220746865207a65726f20616464726573734552433732313a206f776e657220717565727920666f72206e6f6e6578697374656e7420746f6b656e456e756d657261626c654d61703a20696e646578206f7574206f6620626f756e64734552433732313a20617070726f76656420717565727920666f72206e6f6e6578697374656e7420746f6b656e4552433732314d657461646174613a2055524920736574206f66206e6f6e6578697374656e7420746f6b656e4f776e61626c653a2063616c6c6572206973206e6f7420746865206f776e65724552433732313a207472616e73666572206f6620746f6b656e2074686174206973206e6f74206f776e4552433732314d657461646174613a2055524920717565727920666f72206e6f6e6578697374656e7420746f6b656e4552433732313a20617070726f76616c20746f2063757272656e74206f776e65724552433732313a207472616e736665722063616c6c6572206973206e6f74206f776e6572206e6f7220617070726f766564a2646970667358221220b0b793128ab51cfb6c07b416b2d20daad891028762e1a1b4b7abeb92f05fe11264736f6c63430006060033",
  "immutableReferences": {},
  "source": "// SPDX-License-Identifier: MIT\npragma solidity ^0.6.6;\n\nimport \"@openzeppelin/contracts/token/ERC721/ERC721.sol\";\nimport \"@openzeppelin/contracts/access/Ownable.sol\";\nimport \"@openzeppelin/contracts/utils/Counters.sol\";\n\ncontract BitFish is ERC721, Ownable {\n    using SafeMath for uint256;\n    using Strings for string;\n\n    uint256 price;\n\n    constructor() public ERC721(\"8BitFish\", \"8BF\") {}\n\n    using Counters for Counters.Counter;\n    Counters.Counter private _tokenIds;\n    mapping(string => uint8) hashes;\n\n    uint256[] public tokens;\n\n    function mint(string memory hash, string memory _tokenURI)\n        public\n        payable\n        onlyOwner\n        returns (uint256)\n    {\n        uint256 supply = totalSupply();\n        require(supply < 8000, \"Exceeds maximum 8BitFish supply\");\n        require(hashes[hash] != 1);\n        hashes[hash] = 1;\n        _tokenIds.increment();\n        uint256 tokenId = _tokenIds.current();\n        _safeMint(msg.sender, tokenId);\n        _setTokenURI(tokenId, _tokenURI);\n        tokens.push(tokenId);\n        return tokenId;\n    }\n\n    function withdrawFunds() public onlyOwner {\n        msg.sender.transfer(address(this).balance);\n    }\n}\n",
  "sourcePath": "/Users/paulb/Desktop/code/8bitfish/sc-dev/contracts/8BitFish.sol",
  "compiler": {
    "name": "solc",
    "version": "0.6.6+commit.6c089d02.Emscripten.clang"
  },
  "schemaVersion": "3.4.3",
  "updatedAt": "2021-12-05T00:43:41.890Z",
  "networkType": "ethereum",
  "devdoc": {
    "methods": {
      "approve(address,uint256)": {
        "details": "See {IERC721-approve}."
      },
      "balanceOf(address)": {
        "details": "See {IERC721-balanceOf}."
      },
      "baseURI()": {
        "details": "Returns the base URI set via {_setBaseURI}. This will be automatically added as a prefix in {tokenURI} to each token's URI, or to the token ID if no specific URI is set for that token ID."
      },
      "getApproved(uint256)": {
        "details": "See {IERC721-getApproved}."
      },
      "isApprovedForAll(address,address)": {
        "details": "See {IERC721-isApprovedForAll}."
      },
      "name()": {
        "details": "See {IERC721Metadata-name}."
      },
      "owner()": {
        "details": "Returns the address of the current owner."
      },
      "ownerOf(uint256)": {
        "details": "See {IERC721-ownerOf}."
      },
      "renounceOwnership()": {
        "details": "Leaves the contract without owner. It will not be possible to call `onlyOwner` functions anymore. Can only be called by the current owner.     * NOTE: Renouncing ownership will leave the contract without an owner, thereby removing any functionality that is only available to the owner."
      },
      "safeTransferFrom(address,address,uint256)": {
        "details": "See {IERC721-safeTransferFrom}."
      },
      "safeTransferFrom(address,address,uint256,bytes)": {
        "details": "See {IERC721-safeTransferFrom}."
      },
      "setApprovalForAll(address,bool)": {
        "details": "See {IERC721-setApprovalForAll}."
      },
      "supportsInterface(bytes4)": {
        "details": "See {IERC165-supportsInterface}.     * Time complexity O(1), guaranteed to always use less than 30 000 gas."
      },
      "symbol()": {
        "details": "See {IERC721Metadata-symbol}."
      },
      "tokenByIndex(uint256)": {
        "details": "See {IERC721Enumerable-tokenByIndex}."
      },
      "tokenOfOwnerByIndex(address,uint256)": {
        "details": "See {IERC721Enumerable-tokenOfOwnerByIndex}."
      },
      "tokenURI(uint256)": {
        "details": "See {IERC721Metadata-tokenURI}."
      },
      "totalSupply()": {
        "details": "See {IERC721Enumerable-totalSupply}."
      },
      "transferFrom(address,address,uint256)": {
        "details": "See {IERC721-transferFrom}."
      },
      "transferOwnership(address)": {
        "details": "Transfers ownership of the contract to a new account (`newOwner`). Can only be called by the current owner."
      }
    }
  },
  "userdoc": {
    "methods": {}
  }
}